:020000040800F2
:1000000000000220B90C0008410300084303000867
:1000100045030008470300084903000800000000EA
:100020000000000000000000000000004B0300087A
:100030004D030008000000004F03000851030008B2
:10004000090D0008090D0008090D0008090D000838
:10005000090D0008090D0008090D0008090D000828
:10006000090D0008090D0008090D0008090D000818
:10007000090D0008090D0008090D0008090D000808
:10008000090D0008090D0008090D0008090D0008F8
:10009000090D0008090D0008090D0008090D0008E8
:1000A000090D0008090D0008090D0008090D0008D8
:1000B000090D0008090D0008090D0008090D0008C8
:1000C000090D0008090D0008090D0008090D0008B8
:1000D000090D0008090D0008090D0008090D0008A8
:1000E000090D0008090D0008090D0008090D000898
:1000F000090D0008090D0008090D0008090D000888
:10010000090D0008090D0008090D0008090D000877
:10011000090D0008090D0008090D0008090D000867
:10012000090D0008090D0008090D0008090D000857
:10013000090D0008090D0008090D0008090D000847
:10014000090D0008090D0008090D0008090D000837
:10015000090D0008090D0008090D0008090D000827
:10016000090D0008090D0008090D0008090D000817
:10017000090D0008090D0008090D00080000000025
:08018000090D0008090D00083B
:1001880053B94AB9002908BF00281CBF4FF0FF31F6
:100198004FF0FF3000F00CB8ADF1080C6DE904CE5B
:1001A80000F092FEDDF804E0DDE9022304B07047B8
:1001B800704700BF10B5054C237833B9044B13B111
:1001C8000448AFF300800123237010BD3C040020D5
:1001D800000000007C11000808B5034B1BB103495F
:1001E8000348AFF3008008BD000000004004002071
:1001F8007C110008F0B587B00024019402940394A0
:10020800049405940094114B1A6B42F001021A638E
:100218001B6B03F001030093009B0D4D2246022146
:10022800284600F041FA0126019602940227039716
:1002380001A9284600F046F9019702960394049410
:1002480001A9284600F03EF907B0F0BD0038024089
:100258000000024072B6FEE700B595B030220021DA
:1002680008A800F08FFD00230393049305930693D9
:1002780007930193184A116C41F080511164126C74
:1002880002F080520192019A0293144A116841F4D3
:1002980080411160126802F480420292029A02229E
:1002A800089201220B9210220C920E9308A800F0DB
:1002B80001FA68B90F23039300210491059106916F
:1002C800079103A800F044FC20B915B05DF804FBC1
:1002D800FFF7C0FFFFF7BEFF003802400070004084
:1002E80008B500F065F8FFF7B7FFFFF783FF0022B6
:1002F8000221024800F0D8F9F9E700BF00000240E7
:1003080082B0002100910B4B5A6C42F480425A642F
:100318005A6C02F480420092009A01911A6C42F0E1
:1003280080521A641B6C03F080530193019B02B046
:10033800704700BF00380240FEE7FEE7FEE7FEE731
:10034800FEE770477047704708B500F04BF808BDE6
:10035800034AD2F8883043F47003C2F888307047F3
:1003680000ED00E010B504460E4B18784FF47A7390
:10037800B3FBF0F30C4A1068B0FBF3F000F08EF812
:1003880068B90F2C01D901200AE0002221464FF05C
:10039800FF3000F04BF8054B1C60002000E0012006
:1003A80010BD00BF0400002000000020080000204D
:1003B80008B50B4B1A6842F400721A601A6842F4C6
:1003C80080621A601A6842F480721A60032000F092
:1003D8001BF80020FFF7C6FFFFF792FF002008BDBB
:1003E800003C0240034A1168034B1B780B4413601E
:1003F800704700BF5804002004000020014B186813
:10040800704700BF58040020074AD36823F4E0630C
:100418001B041B0C000200F4E060034343F0BF63BD
:1004280043F40033D360704700ED00E000B5194B8A
:10043800DB68C3F30223C3F1070CBCF1040F28BF28
:100448004FF0040C03F1040EBEF1060F18D9033B5C
:100458004FF0FF3E0EFA0CFC21EA0C0199400EFA0F
:1004680003F322EA0303194300280BDB0901C9B28D
:1004780000F1604000F5614080F800135DF804FB6E
:100488000023E5E700F00F000901C9B2024B195437
:10049800F4E700BF00ED00E014ED00E00138B0F132
:1004A800807F0BD24FF0E0235861054AF02182F893
:1004B80023100020986107221A61704701207047B5
:1004C80000ED00E000230F2B00F2E48070B582B04D
:1004D80060E085685E000324B44025EA0405CC6822
:1004E800B4402C438460456825EA02054C68C4F38F
:1004F80000129A402A4342605AE0DC08083450F857
:10050800246003F0070295000F22AA4026EA020E93
:100518000A69AA4042EA0E0240F824205CE0072259
:1005280000E0002202FA0EF22A4302345A4D45F83E
:1005380024205A4A14686FEA0C0224EA0C054E6813
:1005480016F4803F01D04CEA0405544C25606468D9
:1005580002EA04054E6816F4003F01D04CEA04058F
:100568004E4C6560A46802EA04054E6816F4801FC4
:1005780001D04CEA0405494CA560E46822404D6866
:1005880015F4001F01D04CEA0402444CE260013328
:100598000F2B7DD801229A400C6804EA020C32EA3B
:1005A8000404F4D14C6804F00304013C012C90D9F4
:1005B8004A6802F00302032A09D0C4685D000322D6
:1005C800AA4024EA02048A68AA402243C2604A6810
:1005D80002F00302022A90D004684FEA430E032275
:1005E80002FA0EF224EA02044A6802F0030202FA4E
:1005F8000EF2224302604A6812F0805FC7D00022E0
:100608000192274A546C44F480445464526C02F4B6
:1006180080420192019A9C08A51C1F4A52F8255055
:1006280003F003024FEA820E0F2202FA0EF225EAC5
:1006380002051C4A90423FF474AF02F58062904272
:100648001AD002F58062904218D002F5806290427A
:1006580016D002F58062904214D002F58062904272
:1006680012D002F58062904210D002F5806290426A
:100678003FF455AF082255E7012253E7022251E71C
:1006880003224FE704224DE705224BE7062249E7FC
:1006980002B070BD704700BF00380140003C014007
:1006A80000380240000002400AB181617047090425
:1006B80081617047002800F0E08170B582B004467F
:1006C800036813F0010F3BD09F4B9B6803F00C03AA
:1006D800042B2CD09C4B9B6803F00C03082B21D0D7
:1006E8006368B3F5803F4FD0B3F5A02F52D0964B37
:1006F8001A6822F480321A601A6822F480221A607A
:100708006368002B50D0FFF779FE05468E4B1B68B7
:1007180013F4003F14D1FFF771FE401B6428F5D98C
:100728000320B1E1884B5B6813F4800FD8D0864B67
:100738001B6813F4003F03D06368002B00F09F810F
:10074800236813F0020F54D07F4B9B6813F00C0FF3
:100758003ED07D4B9B6803F00C03082B33D0E36835
:10076800002B68D0794B01221A60FFF747FE054637
:10077800754B1B6813F0020F54D1FFF73FFE401B67
:100788000228F5D903207FE16F4A136843F48033C8
:100798001360B5E76C4B1A6842F480221A601A6835
:1007A80042F480321A60ABE7FFF728FE0546664B35
:1007B8001B6813F4003FC3D0FFF720FE401B6428DA
:1007C800F5D9032060E1604B5B6813F4800FC6D154
:1007D8005D4B1B6813F0020F03D0E368012B40F058
:1007E8005081594A136823F0F803216943EAC10389
:1007F8001360236813F0080F42D063696BB3534B3F
:100808000122C3F8802EFFF7F9FD05464E4B5B6FBA
:1008180013F0020F34D1FFF7F1FD401B0228F5D980
:10082800032031E1484A136823F0F803216943EAB9
:10083800C1031360DDE7454B00221A60FFF7DEFDB8
:100848000546414B1B6813F0020FD2D0FFF7D6FDC7
:10085800401B0228F5D9032016E13C4B0022C3F8BF
:10086800802EFFF7CBFD0546374B5B6F13F0020F69
:1008780006D0FFF7C3FD401B0228F5D9032003E18A
:10088800236813F0040F77D02F4B1B6C13F0805F95
:1008980033D1002301932C4B1A6C42F080521A6416
:1008A8001B6C03F080530193019B0125284B1B68A7
:1008B80013F4807F23D0A368012B34D0052B38D0C4
:1008C800214B1A6F22F001021A671A6F22F00402F4
:1008D8001A67A368002B3DD0FFF790FD06461A4B18
:1008E8001B6F13F0020F46D1FFF788FD801B41F202
:1008F80088339842F3D90320C6E00025D6E7144A86
:10090800136843F480731360FFF778FD0646104BB5
:100918001B6813F4807FCED1FFF770FD801B02287F
:10092800F5D90320B0E0084A136F43F001031367B9
:10093800CFE7054B1A6F42F004021A671A6F42F0AC
:1009480001021A67C5E700BF0038024000004742AD
:1009580000700040FFF752FD0646524B1B6F13F024
:10096800020F08D0FFF74AFD801B41F288339842F6
:10097800F3D9032088E0EDB9A369002B00F0838048
:10098800484A926802F00C02082A51D0022B17D06C
:10099800454B00221A66FFF731FD0446414B1B68A0
:1009A80013F0007F42D0FFF729FD001B0228F5D97C
:1009B800032069E03B4A136C23F080531364DBE7A0
:1009C800394B00221A66FFF719FD0546354B1B689F
:1009D80013F0007F06D0FFF711FD401B0228F5D960
:1009E800032051E0E369226A1343626A43EA8213EF
:1009F800A26A5208013A43EA0243E26A43EA0263FE
:100A0800284A5360284B01221A66FFF7F7FC044670
:100A1800244B1B6813F0007F06D1FFF7EFFC001B87
:100A28000228F5D903202FE000202DE000202BE03C
:100A3800012B2BD01B4B5B6803F48001E2699142C8
:100A480026D103F03F02216A8A4223D1616A47F620
:100A5800C0721A40B2EB811F1ED103F44031A26A62
:100A68005208013AB1EB024F18D103F07063E26A01
:100A7800B3EB026F14D1002006E00120704701207B
:100A880002E0012000E0002002B070BD0120FBE779
:100A98000120F9E70120F7E70120F5E70120F3E756
:100AA8000120F1E7003802400000474208B5254B15
:100AB8009B6803F00C03042B3FD0082B3FD1214B3C
:100AC8005A6802F03F025B6813F4800F12D01D4B86
:100AD8005968C1F388111C480023A1FB0001FFF7E6
:100AE8004FFB184B5B68C3F3014301335B00B0FB5A
:100AF800F3F025E0134B5968C1F3881C4FEA4C11F9
:100B0800B1EB0C006EEB0E0E4FEA8E1343EA9063C6
:100B18008101091A63EB0E03DB0043EA5173C90034
:100B280011EB0C0C43F10003990200234FEA8C20CF
:100B380041EA9C51FFF724FBD3E7034800E0034850
:100B480008BD00BF0038024040787D010024F40051
:100B5800002800F09B8070B50D4604464F4B1B687B
:100B680003F007038B4208D2CBB24C4A13701368C8
:100B780003F007038B4240F08B80236813F0020FC9
:100B880017D013F0040F04D0454A936843F4E05398
:100B98009360236813F0080F04D0414A936843F424
:100BA800604393603E4A936823F0F003A1680B43C7
:100BB8009360236813F0010F32D06368012B21D0B2
:100BC8009A1E012A25D9364A126812F0020F61D0FE
:100BD80033498A6822F0030213438B60FFF70EFC47
:100BE80006462F4B9B6803F00C036268B3EB820F39
:100BF80016D0FFF703FC801B41F288339842F0D9E6
:100C0800032042E0264A126812F4003FE0D1012096
:100C18003BE0234A126812F0007FD9D1012034E06A
:100C28001E4B1B6803F00703AB4207D9EAB21B4B04
:100C38001A701B6803F00703AB422DD1236813F029
:100C4800040F06D0164A936823F4E053E1680B4377
:100C58009360236813F0080F07D0114A936823F4B0
:100C68006043216943EAC1039360FFF71FFF0C4B00
:100C78009B68C3F303130B4AD35CD8400A4B186034
:100C88000A4B1868FFF76EFB002070BD0120704703
:100C98000120FAE70120F8E70120F6E7003C0240CE
:100CA80000380240941100080000002008000020CD
:100CB800DFF834D00D480E490E4A002302E0D4581C
:100CC800C4500433C4188C42F9D30B4A0B4C00238C
:100CD80001E013600432A242FBD3FFF739FB00F0B6
:100CE8002DF8FFF7FDFA70470000022000000020F1
:100CF8003C040020BC1100083C04002080040020B3
:100D0800FEE70000002301461A46184600F08AB89C
:100D180038B5084B084D5B1B9C1007D0043B1D449D
:100D2800013C55F804399847002CF9D1BDE8384002
:100D380000F026BABC110008B811000870B50D4EB5
:100D48000D4D761BB61006D0002455F8043B01342F
:100D58009847A642F9D1094E094D761B00F00AFAC8
:100D6800B61006D0002455F8043B01349847A64233
:100D7800F9D170BDB0110008B0110008B811000811
:100D8800B0110008F0B4860746D0541E002A3CD0A3
:100D9800CAB2034601E0013C37D303F8012B9D0793
:100DA800F9D1032C2AD9CDB245EA05250F2C45EAFD
:100DB800054534D9A4F1100222F00F0C03F12007E5
:100DC8001609674403F1100242E9045542E9025545
:100DD8001032BA42F8D1721C14F00C0F03EB021255
:100DE80004F00F0613D0331F23F003030433134416
:100DF80042F8045B9342FBD106F003042CB1CAB25B
:100E08001C4403F8012B9C42FBD1F0BC70473446CC
:100E18001346002CF3D1F8E714460346C1E71A46F7
:100E28002646E0E72DE9F047DFF87CA00646DAF829
:100E3800000098460F46914600F042F8194B1B688F
:100E4800D3F8484124B36568DAF800001F2D24DC84
:100E58004EB9AB1C0135656044F8237000F032F8D8
:100E68000020BDE8F08704EB85030122C3F88890D1
:100E7800D4F88811AA401143022EC4F88811C3F887
:100E88000881E6D1D4F88C311A43C4F88C21E0E704
:100E980003F5A674C3F84841D5E700F013F84FF0FE
:100EA800FF30DEE7A411000838040020024B13B11C
:100EB8000248FFF727BF704700000000190D00081F
:100EC800704700BF704700BF2DE9F04F099E884664
:100ED8008E46154604461946002B40F0C780424509
:100EE800B2FA82F746D94FB1C7F1200C08FA07F3D6
:100EF80020FA0CFCBD404CEA030EBC404FEA1548F2
:100F08001FFA85FCBEFBF8F9220C08FB19E309FB64
:100F18000CFA42EA03439A4528D9EB1809F1FF3045
:100F280004D29A4502D9A9F102002B44A3EB0A0383
:100F3800A4B2B3FBF8F208FB123302FB0CFC44EA40
:100F48000344A44514D92C1902F1FF3303D2A44554
:100F580001D9931E2C44A4EB0C0443EA00401EB1B3
:100F6800FC40002334607360BDE8F08F4846DDE73D
:100F78001346F0E702B9FFDE8FBBA8EB020301219D
:100F88004FEA154EAAB2B3FBFEFC200C0EFB1C3335
:100F98000CFB02F840EA0343984563D9EB180CF1BF
:100FA800FF3004D2984502D9ACF102002B44A3EBE0
:100FB8000803A4B2B3FBFEFC0EFB1C330CFB02F2CD
:100FC80044EA0344A2424FD92C190CF1FF3304D24E
:100FD800A24202D9ACF102032C44A41ABDE7C7F11E
:100FE800200C28FA0CF908FA07F320FA0CFCBD408B
:100FF8004CEA03024FEA154EABB2B9FBFEFC110CEA
:101008000EFB1C900CFB03F841EA0040804504FAF3
:1010180007F423D928180CF1FF3104D2804502D9EE
:10102800ACF102012844A0EB080092B2B0FBFEFC30
:101038000EFB1C000CFB03F842EA004398450FD94D
:10104800EB180CF1FF3204D2984502D9ACF1020238
:101058002B44A3EB080342EA014191E76146E2E72A
:101068006246F6E76046A2E76346B6E7434505D918
:101078000EB1C6E900080021084675E7B3FA83FCFB
:10108800BCF1000F10D1434501D382420AD8841A1B
:1010980068EB030301209E46002E68D0C6E9004E87
:1010A800002161E76046F7E7CCF1200E03FA0CF364
:1010B80022FA0EF41C4320FA0EF108FA0CF328FA6F
:1010C8000EFB19434FEA144902FA0CF5BBFBF9F879
:1010D800A3B209FB18BB0A0C08FB03FA42EA0B424D
:1010E800924500FA0CF73ED9A21808F1FF3004D255
:1010F800924502D9A8F102002244A2EB0A0289B261
:10110800B2FBF9F809FB182208FB03F341EA024293
:1011180093422AD9A21808F1FF3104D2934202D986
:10112800A8F10201224441EA0040A0FB0598D21A26
:1011380042454B46414602D306D14F4504D2B9EB4E
:10114800050368EB040101388EB1FC1A62EB010754
:1011580007FA0EFE24FA0CF34EEA030327FA0CF7FB
:10116800C6E900379CE74046C7E74146DBE731461A
:10117800FAE60000F8B500BFF8BC08BC9E46704708
:0C118800F8B500BFF8BC08BC9E467047DC
:101194000000000000000000010203040607080923
:0411A4001000002017
:0811A80028FDFF7F010000009B
:0811B000B50E0008E101000882
:0411B800BD0100086D
:1011BC000024F400010000001000000000000000FA
:1011CC0000000000FC02002064030020CC0300207F
:1011DC000000000000000000000000000000000003
:1011EC0000000000000000000000000000000000F3
:1011FC0000000000000000000000000000000000E3
:10120C0000000000000000000000000000000000D2
:10121C0000000000000000000000000000000000C2
:10122C0000000000000000000000000000000000B2
:10123C0000000000000000000000000000000000A2
:10124C000000000000000000000000000000000092
:10125C000000000000000000000000000000000082
:10126C000000000000000000010000000000000071
:10127C000E33CDAB34126DE6ECDE05000B00000036
:10128C000000000000000000000000000000000052
:10129C000000000000000000000000000000000042
:1012AC000000000000000000000000000000000032
:1012BC000000000000000000000000000000000022
:0C15EC0000000000000000005C04002073
:0400000508000CB92A
:00000001FF
